:100000000C9463000C948B000C948B000C948B006C
:100010000C948B000C948B000C948B000C948B0034
:100020000C948B000C948B000C948B000C94F107B7
:100030000C948B000C948B000C948B000C948B0014
:100040000C9436090C948B000C948B000C948B0050
:100050000C948B000C948B000C948B000C948B00F4
:100060000C948A040C948B000000000024002700EC
:100070002A0000000000250028002B0000000000DE
:1000800023002600290004040404040404040202DA
:100090000202020203030303030301020408102007
:1000A0004080010204081020010204081020000012
:1000B0000007000201000003040600000000000029
:1000C00000009700C70311241FBECFEFD8E0DEBFAA
:1000D000CDBF11E0A0E0B1E0EEECF7E102C0059089
:1000E0000D92A431B107D9F712E0A4E1B1E001C04B
:1000F0001D92A832B107E1F710E0C6ECD0E004C0D1
:100100002297FE010E94E10BC23CD107C9F70E9471
:10011000F80A0C94E50B0C940000FB01DC0102C012
:1001200001900D9241505040D8F708950895EF92F4
:10013000FF920F931F9380E291E063E070E044E050
:1001400050E028E030E006E010E0E5E0EE2EF12C93
:100150000E941B0381E391E00E9439061F910F91D9
:10016000FF90EF9008950F931F93CF93DF938C012F
:1001700081E391E00E94AE06801791078CF4EC01B8
:1001800081E391E0BE010E94030762E370E080E03A
:1001900090E00E947E0921960C171D078CF710C075
:1001A000EC0181E391E0BE010E94030762E370E08D
:1001B00080E090E00E947E092197C017D1078CF75C
:1001C00060EB74E080E090E00E947E09DF91CF91C7
:1001D0001F910F91089582E00E94A50A892B21F4B6
:1001E00080E291E00E948A0284E191E00E94600135
:1001F0008823C1F180911E0190911F0181309105EA
:1002000059F48AE090E00E94B30080E291E00E94FD
:1002100023028AE290E00DC08230910589F489E4DE
:1002200090E00E94B30080E291E00E94230287E602
:1002300090E00E94B30080E291E00E9423020895C2
:10024000039781F487E890E00E94B30080E291E098
:100250000E94230286EA90E00E94B30080E291E0CF
:100260000E94230208950F931F930DE711E0C80128
:1002700069E070E00E945E0484E191E06EE171E06B
:1002800042E098010E941002C80166E970E00E94F5
:10029000C20382E060E00E94120A80E291E00E94C4
:1002A000F10201E311E0C80169E070E00E94EA0791
:1002B000C8016AE070E00E9403071F910F91089542
:1002C000FF920F931F93CF93DF93EC0188858823D0
:1002D00009F043C0E881F981A081B18114962D9184
:1002E0003C911597CF01F9010995039764F435C046
:1002F000ED91FC9111970480F581E02DCD010995D8
:1003000003970CF47CC0E881F981A081B181169635
:100310002D913C911797CF01F9010995A881B981D9
:10032000069731F7ED91FC9111970680F781E02D4A
:10033000CD0109958538910581F4A881B981ED91A8
:10034000FC9111970680F781E02DCD0109958887F2
:100350009C81891711F0188652C08885882309F47A
:100360004EC0E881F981A081B18114962D913C9114
:100370001597CF01F9010995892B09F447C0FF8032
:1003800088858F1508F442C00D811E810F0D111D47
:10039000A881B981ED91FC9111970680F781E02D3C
:1003A000CD010995F8018083F394FF82DACF498764
:1003B00020E030E007C0A20FB31F8C914827498787
:1003C0002F5F3F4F888590E0AD81BE81498528171A
:1003D00039078CF38F81FD01E80FF11D3197808182
:1003E000481759F44C818A819B81BD0150E00E94DD
:1003F0008D0018861F8281E003C018861F8280E06E
:10040000DF91CF911F910F91FF9008954885242F80
:1004100030E08F8190E001972817390781F7C7CF27
:100420000F931F938C01842FF8017383628344839D
:100430003183208390E00E94AF08F8018583968382
:100440001F910F910895EF92FF920F931F93CF93F7
:10045000DF93EC01888560E00E94510A8A8160E0A8
:100460000E94510A8C8161E00E94510A0A851B8515
:100470008EE0E82EF12CEC0EFD1E0CC0C701B80179
:100480000E9403076FE070E080E090E00E947E0928
:10049000055010408C859D85081719077CF768EB7F
:1004A0007BE080E090E00E947E098C8160E00E9409
:1004B000510A8E8161E00E94510A0C851D850CC095
:1004C000C701B8010E9403076FE070E080E090E090
:1004D0000E947E09065F1F4F8A859B8580179107C2
:1004E0007CF760E971E080E090E00E947E098E81F7
:1004F00060E00E94510A888561E00E94510A8A8169
:1005000061E00E94510ADF91CF911F910F91FF90FE
:10051000EF900895EF92FF920F931F93CF93DF9385
:10052000EC01888560E00E94510A8A8160E00E94A7
:10053000510A8C8161E00E94510A0A851B859EE068
:10054000E92EF12CEC0EFD1E0CC0C701B8010E9473
:1005500003076FE070E080E090E00E947E090550A4
:1005600010408C859D85081719077CF768EB7BE0A8
:1005700080E090E00E947E098C8160E00E94510A38
:100580008E8161E00E94510A0C851D850CC0C70157
:10059000B8010E9403076FE070E080E090E00E94E5
:1005A0007E09065F1F4F8A859B85801791077CF720
:1005B0006CEF78E080E090E00E947E098E8160E040
:1005C0000E94510A888561E00E94510A8A8161E097
:1005D0000E94510ADF91CF911F910F91FF90EF90F0
:1005E0000895EF92FF920F931F938C012EE0E22E5D
:1005F000F12CE80EF91EFC0160817181C7010E9497
:10060000EA07F80162857385C7010E940307F801B4
:10061000868160E00E94510AF801808561E00E94B5
:10062000510AF801828161E00E94510A1F910F91E5
:10063000FF90EF9008956F927F928F929F92AF926A
:10064000BF92CF92DF92EF92FF920F931F936C01B4
:100650005B013A0149010E960E943906F601B1820A
:10066000A082628273829582848217830683F186D8
:10067000E08681E990E0938782878DE290E095871C
:100680008487862D61E00E94120AF601848161E070
:100690000E94120AF601868161E00E94120AF601A8
:1006A000808561E00E94120A1F910F91FF90EF90E8
:1006B000DF90CF90BF90AF909F908F907F906F9082
:1006C00008952091550130E080915401281B310993
:1006D000C90108954091540180915501481718F0BF
:1006E0002FEF3FEF0AC0E42FF0E0EC5CFE4F80817B
:1006F000282F30E04F5F40935401C9010895E091E5
:10070000540180915501E81718F0EFEFFFEF06C094
:10071000F0E0EC5CFE4F8081E82FF0E0CF0108951F
:100720000895AC0120917B0130917C0121153105A8
:10073000E1F090915401809155019817B0F090E04C
:1007400008C0FA01EA0FFB1F8081AC5CBE4F8C939E
:100750009F5FA92FB0E0A617B7079CF31092540132
:1007600060935501CB01F90109950895E091790154
:10077000F0917A01309729F010927601109277016A
:100780000995089570937C0160937B010895109200
:10079000800110927F0188EE93E0A0E0B0E08093AA
:1007A000810190938201A0938301B093840188E03A
:1007B00091E090937E0180937D010895CF92DF9226
:1007C000EF92FF920F931F93CF93DF937C016B0106
:1007D0008A01809178018823A1F0C0E0D0E00DC0AB
:1007E000D701ED91FC91D601AC0FBD1F0190F081B6
:1007F000E02DC7016C9109952196C017D10780F3B0
:1008000004C0CB01642F0E946504C801DF91CF9121
:100810001F910F91FF90EF90DF90CF900895DF939D
:10082000CF930F92CDB7DEB7FC0169838091780139
:100830008823C9F080917701803238F081E090E020
:100840009383828320E030E015C080917601E82F09
:10085000F0E0EA5AFE4F998190838F5F8093760192
:100860008093770105C0CE01019661E00E94650486
:1008700021E030E0C9010F90CF91DF9108951092EF
:1008800054011092550110927601109277010E9446
:100890001B0608950F931F938C01862F0E946104FD
:1008A00086EB93E00E94850481E993E00E94800436
:1008B000C8010E943F041F910F9108950E944A04AD
:1008C0000895880F8093BA000895482F613210F080
:1008D00081E0089580918901843011F082E00895CB
:1008E0006093D401A3EBB1E0842F9C01F90102C015
:1008F00081918D938E2F841B8617D0F380E008950D
:100900009093900180938F01089590938E0180932E
:100910008D0108951F920F920FB60F9211242F93FD
:100920003F934F935F936F937F938F939F93AF9377
:10093000BF93EF93FF938091B90090E0887F907010
:100940008036910509F4F2C081369105CCF58832E4
:10095000910509F47BC089329105B4F48031910589
:1009600009F46FC0813191053CF4009709F447C147
:10097000089709F04FC165C08831910509F466C038
:10098000809709F047C182C08034910509F4A4C062
:100990008134910544F48033910509F482C0C897ED
:1009A00009F038C189C08035910509F489C08835BE
:1009B000910509F496C08834910509F02BC1AEC0A9
:1009C0008839910509F413C189399105ECF4883708
:1009D000910509F4ABC0893791054CF4883691052F
:1009E00009F4A4C08037910509F014C19FC088386C
:1009F000910509F4FCC08039910509F49DC0803847
:100A0000910509F007C198C0803B910509F4C6C063
:100A1000813B91054CF4803A910509F49FC0883AD6
:100A2000910509F0F7C0BAC0803C910509F4E3C014
:100A3000883C910509F4DFC0883B910509F0EAC0C4
:100A4000C2C080918A018093BB00CFC09091B10158
:100A50008091B201981768F49091B101E92FF0E00C
:100A6000EF56FE4F80818093BB009F5F9093B10152
:100A7000BCC080918B01882309F44BC085ED809325
:100A8000BC008091BC0084FDFCCFC2C080E280939A
:100A9000F60185ED8093BC008091BC0084FDFCCF05
:100AA000B7C080E38093F60185ED8093BC00809110
:100AB000BC0084FDFCCFACC088E38093F6019BC0F2
:100AC0008091B1019091BB00E82FF0E0EF56FE4F0E
:100AD00090838F5F8093B1019091B1018091B201B9
:100AE00082C08091B1019091BB00E82FF0E0EF56F9
:100AF000FE4F90838F5F8093B10180918B0188239B
:100B000041F085ED8093BC008091BC0084FDFCCF5A
:100B10007FC081E080938C0184EA6EC085ED809374
:100B2000BC008091BC0084FDFCCF72C083E0809348
:100B300089011092F50159C08091F501803208F0C9
:100B400056C08091F5019091BB00E82FF0E0EB5288
:100B5000FE4F90838F5F8093F50147C08091F50130
:100B6000803230F4E091F501F0E0EB52FE4F10825C
:100B700085ED8093BC008091BC0084FDFCCF109279
:100B800089016091F501E0918F01F091900185ED6F
:100B900091E070E009951092F5012DC084E08093FA
:100BA00089011092D3011092D401E0918D01F0914E
:100BB0008E0109958091D401882329F481E08093E6
:100BC000D4011092B3019091D301E92FF0E0ED54DC
:100BD000FE4F80818093BB009F5F9093D3019091E3
:100BE000D3018091D401981710F485EC01C085E8F9
:100BF0008093BC000FC085EC8093BC0009C01092AC
:100C0000F60185ED8093BC008091BC0084FDFCCF93
:100C100010928901FF91EF91BF91AF919F918F91B8
:100C20007F916F915F914F913F912F910F900FBEE8
:100C30000F901F9018951092890181E080938B018D
:100C400010928C0182E161E00E94510A83E161E02F
:100C50000E94510AE9EBF0E080818E7F80838081E1
:100C60008D7F808388E48093B80085E48093BC0006
:100C70000895FC018091F7018C3090F480838F5FA0
:100C80008093F701815090E0FC01EE0FFF1FE80F09
:100C9000F91FE850FE4F88EB9BE092838183089513
:100CA0008FEF80830895FC0120812C30B8F581817D
:100CB000992787FD909548E850E0481B590B440F51
:100CC000551F440F551F6417750784F082819927BB
:100CD00087FD909548E552E0481B590B440F551F7E
:100CE000440F551F641775070CF4AB014250504078
:100CF000CA01AA2797FDA095BA2F880F991FAA1F8E
:100D0000BB1F4FB7F89430E0F901EE0FFF1FE20F61
:100D1000F31FE850FE4F928381834FBF0895FC017B
:100D200080818F3F19F420E030E016C090E0FC0194
:100D3000EE0FFF1FE80FF91FE850FE4F21813281AF
:100D400083E0220F331F8A95E1F7B4E036952795AB
:100D5000BA95E1F72E5F3F4FC9010895AF92BF9258
:100D6000CF92DF92EF92FF920F931F938C010E941C
:100D70008F0600D000D00196AA2797FDA095BA2F24
:100D8000F8016181772767FD709528E830E0261B20
:100D9000370B220F331F220F331F442737FD409597
:100DA000542F6281772767FD7095E8E5EE2EE2E02B
:100DB000FE2EE61AF70AEE0CFF1CEE0CFF1C0027B5
:100DC000F7FC0095102F64EBA62EB12CC12CD12C72
:100DD000EDB7FEB7A182B282C382D482BC01CD013D
:100DE000AA24BB2465010E94070B0F900F900F905F
:100DF0000F90CB011F910F91FF90EF90DF90CF905C
:100E0000BF90AF900895AF92BF92CF92DF92EF92D2
:100E1000FF920F931F93CF93DF93EC019B0182E02E
:100E2000603278070CF048C077FF03C020E030E064
:100E300005C0653B710514F024EB30E000D000D014
:100E4000B901882777FD8095982F2981332727FDC1
:100E50003095E8E8AE2EB12CA21AB30AAA0CBB1C3E
:100E6000AA0CBB1CCC24B7FCC094DC2CEA81FF2765
:100E7000E7FDF09528E532E02E1B3F0B220F331FD4
:100E8000220F331F442737FD4095542FEDB7FEB78F
:100E9000218332834383548320E030E040E050E0FC
:100EA00004EBE02EF12C012D112D0E94070B9B016C
:100EB0000F900F900F900F90CE01B9010E94530632
:100EC000DF91CF911F910F91FF90EF90DF90CF9026
:100ED000BF90AF900895CF92DF92EF92FF921F9351
:100EE000CF93DF93EC01162F7A01690188818C3052
:100EF00008F064C0862F61E00E94120A888190E0A9
:100F0000FC01EE0FFF1FE80FF91FE850FE4F1F73A3
:100F10008081807C812B808380E292E08E199F0902
:100F200064E070E00E947B0B698380E699E08C1995
:100F30009D0964E070E00E947B0B6A83A8818A2F80
:100F40006CE00E946F0B682F70E0AB01440F551FDF
:100F5000460F571F440F551F440F551F20E030E028
:100F6000C901840F951FFC01EE0FFF1FE80FF91F49
:100F7000E850FE4F808186FD15C02F5F3F4F2C301B
:100F8000310571F724C01092800082E080938100C7
:100F90001092850010928400B19A80916F00826057
:100FA00080936F008A2F90E0FC01EE0FFF1FE80F87
:100FB000F91FE850FE4F8081806480838881DF9133
:100FC000CF911F91FF90EF90DF90CF900895672B06
:100FD000D1F2E8CF40E252E020E639E00E946B0710
:100FE00008951F920F920FB60F9211242F933F93E3
:100FF0004F935F936F937F938F939F93AF93BF9321
:10100000EF93FF9380911C0287FF05C0109285002B
:10101000109284002BC020911C02332727FD3095AD
:101020008091F70190E02817390704F580911C02A0
:10103000992787FD9095FC01EE0FFF1FE80FF91F20
:10104000E850FE4F808186FF11C080911C029927D5
:1010500087FD9095FC01EE0FFF1FE80FF91FE85088
:10106000FE4F80818F7360E00E94510A80911C02C4
:101070008F5F80931C0220911C02332727FD30953F
:101080008091F70190E0281739070CF04EC080914D
:101090001C028C300CF049C02091840030918500F6
:1010A00080911C02992787FD9095FC01EE0FFF1F90
:1010B000E80FF91FE850FE4F81819281280F391FF8
:1010C000309389002093880080911C02992787FD26
:1010D0009095FC01EE0FFF1FE80FF91FE850FE4F3F
:1010E000808186FF2BC080911C02992787FD9095F7
:1010F000FC01EE0FFF1FE80FF91FE850FE4F808143
:101100008F7361E00E94510A19C080E49CE905C018
:10111000809184009091850004969093890080933B
:1011200088008FEF80931C0209C080918400909109
:101130008500049680549C4940F3EACFFF91EF91DB
:10114000BF91AF919F918F917F916F915F914F91DF
:101150003F912F910F900FBE0F901F9018950F93F6
:101160001F93CF93DF93BC018230910510F462E0AE
:1011700070E0E0912602F0912702A0E0B0E040E0AC
:1011800050E024C08081918186179707D0F08617A0
:10119000970771F482819381109729F013969C939D
:1011A0008E9312972CC0909327028093260227C01B
:1011B0004115510519F08417950718F4EF018D01B9
:1011C000AC01DF01828193819C01F9013097D1F656
:1011D00041155105F9F0CA01861B970B8430910522
:1011E00080F48A819B810115110521F0F801938318
:1011F000828304C09093270280932602FE013296D8
:101200002FC0FE01E80FF91F619371930297998334
:10121000888326C08DB79EB78857904020910001E3
:101220003091010128173907C8F4AC01421B530B58
:101230004617570798F0CB0102964817590770F0E8
:10124000820F931F909301018093000190930301FB
:1012500080930201F9016193719302C0E0E0F0E034
:10126000CF01DF91CF911F910F9108951F920F929F
:101270000FB60F9211242F933F938F939F93AF93A9
:10128000BF938091210290912202A0912302B091FC
:101290002402309125020196A11DB11D232F2D5F3F
:1012A0002D3720F02D570196A11DB11D2093250249
:1012B0008093210290932202A0932302B0932402F0
:1012C00080911D0290911E02A0911F02B0912002F8
:1012D0000196A11DB11D80931D0290931E02A09343
:1012E0001F02B0932002BF91AF919F918F913F91C8
:1012F0002F910F900FBE0F901F9018959B01AC017E
:101300007FB7F89480911D0290911E02A0911F0258
:10131000B091200266B5A89B05C06F3F19F00196F9
:10132000A11DB11D7FBFBA2FA92F982F8827860F27
:10133000911DA11DB11D62E0880F991FAA1FBB1F3F
:101340006A95D1F7BC012DC0FFB7F89480911D02BA
:1013500090911E02A0911F02B0912002E6B5A89BB9
:1013600005C0EF3F19F00196A11DB11DFFBFBA2FB7
:10137000A92F982F88278E0F911DA11DB11DE2E086
:10138000880F991FAA1FBB1FEA95D1F7861B970BE1
:10139000885E9340C8F22150304040405040685130
:1013A0007C4F211531054105510571F6089578945A
:1013B00084B5826084BD84B5816084BD85B582605A
:1013C00085BD85B5816085BDEEE6F0E080818160F8
:1013D0008083E1E8F0E010828081826080838081F8
:1013E00081608083E0E8F0E0808181608083E1EBD0
:1013F000F0E0808184608083E0EBF0E080818160B8
:101400008083EAE7F0E0808184608083808182606D
:101410008083808181608083808180688083109256
:10142000C1000895CF93DF93482F50E0CA0186563C
:101430009F4FFC0134914A575F4FFA0184918823F2
:1014400069F190E0880F991FFC01E859FF4FA591C1
:10145000B491FC01EE58FF4FC591D491662351F42D
:101460002FB7F8948C91932F909589238C93888132
:1014700089230BC0623061F42FB7F8948C91932FBD
:10148000909589238C938881832B88832FBF06C0F6
:101490009FB7F8948C91832B8C939FBFDF91CF9152
:1014A0000895482F50E0CA0182559F4FFC012491B6
:1014B000CA0186569F4FFC0194914A575F4FFA012B
:1014C0003491332309F440C0222351F1233071F0C9
:1014D000243028F42130A1F0223011F514C0263038
:1014E000B1F02730C1F02430D9F404C080918000DD
:1014F0008F7703C0809180008F7D8093800010C023
:1015000084B58F7702C084B58F7D84BD09C080917A
:10151000B0008F7703C08091B0008F7D8093B000C2
:10152000E32FF0E0EE0FFF1FEE58FF4FA591B491AF
:101530002FB7F894662321F48C919095892302C0EB
:101540008C91892B8C932FBF0895682F70E0CB016D
:1015500082559F4FFC012491CB0186569F4FFC0181
:1015600044916A577F4FFB019491992319F420E02D
:1015700030E03CC0222351F1233071F0243028F4B4
:101580002130A1F0223011F514C02630B1F02730FF
:10159000C1F02430D9F404C0809180008F7703C05B
:1015A000809180008F7D8093800010C084B58F77FC
:1015B00002C084B58F7D84BD09C08091B0008F7753
:1015C00003C08091B0008F7D8093B000892F90E0A0
:1015D000880F991F84589F4FFC01A591B4918C915D
:1015E00020E030E0842311F021E030E0C9010895CB
:1015F000CF93DF930E94D7090E943301C0E0D0E06F
:101600000E94EB002097E1F30E940000F9CF2F9297
:101610003F924F925F926F927F928F929F92AF9282
:10162000BF92CF92DF92EF92FF920F931F93DF93BF
:10163000CF93CDB7DEB73B014C0119012A016D896B
:101640007E898F89988D6A197B098C099D09621A98
:10165000730A840A950AA40193010E94500BE218B0
:10166000F30804091509A80197010E94B00B2A0D7F
:101670003B1D4C1D5D1DB901CA01CF91DF911F912A
:101680000F91FF90EF90DF90CF90BF90AF909F9021
:101690008F907F906F905F904F903F902F90089524
:1016A000629FD001739FF001829FE00DF11D649F46
:1016B000E00DF11D929FF00D839FF00D749FF00DD2
:1016C000659FF00D9927729FB00DE11DF91F639F73
:1016D000B00DE11DF91FBD01CF0111240895991B23
:1016E00079E004C0991F961708F0961B881F7A9519
:1016F000C9F78095089597FB092E07260AD077FD34
:1017000004D049D006D000201AF4709561957F4F1F
:101710000895F6F7909581959F4F0895A1E21A2EAE
:10172000AA1BBB1BFD010DC0AA1FBB1FEE1FFF1F85
:10173000A217B307E407F50720F0A21BB30BE40BD5
:10174000F50B661F771F881F991F1A9469F760951C
:101750007095809590959B01AC01BD01CF010895D6
:1017600097FB092E05260ED057FD04D0D7DF0AD0EF
:10177000001C38F450954095309521953F4F4F4FC0
:101780005F4F0895F6F790958095709561957F4F1E
:101790008F4F9F4F0895AA1BBB1B51E107C0AA1F83
:1017A000BB1FA617B70710F0A61BB70B881F991F02
:1017B0005A95A9F780959095BC01CD010895EE0F3B
:0E17C000FF1F0590F491E02D0994F894FFCFDF
:1017CE0028026400000000000F04DE0361036A03B8
:0417DE007F039003F2
:00000001FF
